{
    "_format": "hh-sol-artifact-1",
    "contractName": "DreyerxStaking",
    "sourceName": "contracts/StakingV3Pool.sol",
    "abi": [
        {
            "inputs": [
                {
                    "internalType": "address",
                    "name": "_token",
                    "type": "address"
                },
                {
                    "internalType": "uint256",
                    "name": "_lockDuration",
                    "type": "uint256"
                }
            ],
            "stateMutability": "nonpayable",
            "type": "constructor"
        },
        {
            "anonymous": false,
            "inputs": [
                {
                    "indexed": true,
                    "internalType": "address",
                    "name": "user",
                    "type": "address"
                },
                {
                    "indexed": false,
                    "internalType": "uint256",
                    "name": "amount",
                    "type": "uint256"
                }
            ],
            "name": "Deposit",
            "type": "event"
        },
        {
            "anonymous": false,
            "inputs": [
                {
                    "indexed": true,
                    "internalType": "address",
                    "name": "user",
                    "type": "address"
                },
                {
                    "indexed": false,
                    "internalType": "uint256",
                    "name": "amount",
                    "type": "uint256"
                }
            ],
            "name": "EmergencyWithdraw",
            "type": "event"
        },
        {
            "anonymous": false,
            "inputs": [
                {
                    "indexed": true,
                    "internalType": "address",
                    "name": "previousOwner",
                    "type": "address"
                },
                {
                    "indexed": true,
                    "internalType": "address",
                    "name": "newOwner",
                    "type": "address"
                }
            ],
            "name": "OwnershipTransferred",
            "type": "event"
        },
        {
            "anonymous": false,
            "inputs": [
                {
                    "indexed": true,
                    "internalType": "address",
                    "name": "user",
                    "type": "address"
                },
                {
                    "indexed": false,
                    "internalType": "uint256",
                    "name": "amount",
                    "type": "uint256"
                }
            ],
            "name": "Withdraw",
            "type": "event"
        },
        {
            "inputs": [],
            "name": "apy",
            "outputs": [
                {
                    "internalType": "uint256",
                    "name": "",
                    "type": "uint256"
                }
            ],
            "stateMutability": "view",
            "type": "function"
        },
        {
            "inputs": [],
            "name": "calculateNewRewards",
            "outputs": [
                {
                    "internalType": "uint256",
                    "name": "",
                    "type": "uint256"
                }
            ],
            "stateMutability": "view",
            "type": "function"
        },
        {
            "inputs": [
                {
                    "internalType": "uint256",
                    "name": "_amount",
                    "type": "uint256"
                }
            ],
            "name": "deposit",
            "outputs": [],
            "stateMutability": "nonpayable",
            "type": "function"
        },
        {
            "inputs": [
                {
                    "internalType": "uint256",
                    "name": "_amount",
                    "type": "uint256"
                }
            ],
            "name": "emergencyRewardWithdraw",
            "outputs": [],
            "stateMutability": "nonpayable",
            "type": "function"
        },
        {
            "inputs": [],
            "name": "emergencyWithdraw",
            "outputs": [],
            "stateMutability": "nonpayable",
            "type": "function"
        },
        {
            "inputs": [],
            "name": "exitPenaltyPerc",
            "outputs": [
                {
                    "internalType": "uint256",
                    "name": "",
                    "type": "uint256"
                }
            ],
            "stateMutability": "view",
            "type": "function"
        },
        {
            "inputs": [
                {
                    "internalType": "address",
                    "name": "",
                    "type": "address"
                }
            ],
            "name": "holderUnlockTime",
            "outputs": [
                {
                    "internalType": "uint256",
                    "name": "",
                    "type": "uint256"
                }
            ],
            "stateMutability": "view",
            "type": "function"
        },
        {
            "inputs": [],
            "name": "lockDuration",
            "outputs": [
                {
                    "internalType": "uint256",
                    "name": "",
                    "type": "uint256"
                }
            ],
            "stateMutability": "view",
            "type": "function"
        },
        {
            "inputs": [],
            "name": "massUpdatePools",
            "outputs": [],
            "stateMutability": "nonpayable",
            "type": "function"
        },
        {
            "inputs": [],
            "name": "owner",
            "outputs": [
                {
                    "internalType": "address",
                    "name": "",
                    "type": "address"
                }
            ],
            "stateMutability": "view",
            "type": "function"
        },
        {
            "inputs": [
                {
                    "internalType": "address",
                    "name": "_user",
                    "type": "address"
                }
            ],
            "name": "pendingReward",
            "outputs": [
                {
                    "internalType": "uint256",
                    "name": "",
                    "type": "uint256"
                }
            ],
            "stateMutability": "view",
            "type": "function"
        },
        {
            "inputs": [
                {
                    "internalType": "uint256",
                    "name": "",
                    "type": "uint256"
                }
            ],
            "name": "poolInfo",
            "outputs": [
                {
                    "internalType": "contract IBEP20",
                    "name": "lpToken",
                    "type": "address"
                },
                {
                    "internalType": "uint256",
                    "name": "allocPoint",
                    "type": "uint256"
                },
                {
                    "internalType": "uint256",
                    "name": "lastRewardTimestamp",
                    "type": "uint256"
                },
                {
                    "internalType": "uint256",
                    "name": "accTokensPerShare",
                    "type": "uint256"
                }
            ],
            "stateMutability": "view",
            "type": "function"
        },
        {
            "inputs": [],
            "name": "renounceOwnership",
            "outputs": [],
            "stateMutability": "nonpayable",
            "type": "function"
        },
        {
            "inputs": [],
            "name": "rewardToken",
            "outputs": [
                {
                    "internalType": "contract IBEP20",
                    "name": "",
                    "type": "address"
                }
            ],
            "stateMutability": "view",
            "type": "function"
        },
        {
            "inputs": [],
            "name": "rewardsRemaining",
            "outputs": [
                {
                    "internalType": "uint256",
                    "name": "",
                    "type": "uint256"
                }
            ],
            "stateMutability": "view",
            "type": "function"
        },
        {
            "inputs": [],
            "name": "stakingToken",
            "outputs": [
                {
                    "internalType": "contract IBEP20",
                    "name": "",
                    "type": "address"
                }
            ],
            "stateMutability": "view",
            "type": "function"
        },
        {
            "inputs": [],
            "name": "startReward",
            "outputs": [],
            "stateMutability": "nonpayable",
            "type": "function"
        },
        {
            "inputs": [],
            "name": "stopReward",
            "outputs": [],
            "stateMutability": "nonpayable",
            "type": "function"
        },
        {
            "inputs": [],
            "name": "totalStaked",
            "outputs": [
                {
                    "internalType": "uint256",
                    "name": "",
                    "type": "uint256"
                }
            ],
            "stateMutability": "view",
            "type": "function"
        },
        {
            "inputs": [
                {
                    "internalType": "address",
                    "name": "newOwner",
                    "type": "address"
                }
            ],
            "name": "transferOwnership",
            "outputs": [],
            "stateMutability": "nonpayable",
            "type": "function"
        },
        {
            "inputs": [
                {
                    "internalType": "uint256",
                    "name": "newApy",
                    "type": "uint256"
                }
            ],
            "name": "updateApy",
            "outputs": [],
            "stateMutability": "nonpayable",
            "type": "function"
        },
        {
            "inputs": [
                {
                    "internalType": "uint256",
                    "name": "newPenaltyPerc",
                    "type": "uint256"
                }
            ],
            "name": "updateExitPenalty",
            "outputs": [],
            "stateMutability": "nonpayable",
            "type": "function"
        },
        {
            "inputs": [
                {
                    "internalType": "uint256",
                    "name": "newlockDuration",
                    "type": "uint256"
                }
            ],
            "name": "updatelockduration",
            "outputs": [],
            "stateMutability": "nonpayable",
            "type": "function"
        },
        {
            "inputs": [
                {
                    "internalType": "address",
                    "name": "",
                    "type": "address"
                }
            ],
            "name": "userInfo",
            "outputs": [
                {
                    "internalType": "uint256",
                    "name": "amount",
                    "type": "uint256"
                },
                {
                    "internalType": "uint256",
                    "name": "rewardDebt",
                    "type": "uint256"
                }
            ],
            "stateMutability": "view",
            "type": "function"
        },
        {
            "inputs": [],
            "name": "withdraw",
            "outputs": [],
            "stateMutability": "nonpayable",
            "type": "function"
        }
    ],
    "bytecode": "0x60c060405260006009553480156200001657600080fd5b506040516200344a3803806200344a83398181016040528101906200003c919062000303565b60006200004e6200025660201b60201c565b9050806000806101000a81548173ffffffffffffffffffffffffffffffffffffffff021916908373ffffffffffffffffffffffffffffffffffffffff1602179055508073ffffffffffffffffffffffffffffffffffffffff16600073ffffffffffffffffffffffffffffffffffffffff167f8be0079c531659141344cd1fd0a4f28419497f9722a3daafe3b4186f6b6457e060405160405180910390a350600180819055508173ffffffffffffffffffffffffffffffffffffffff1660808173ffffffffffffffffffffffffffffffffffffffff168152505060805173ffffffffffffffffffffffffffffffffffffffff1660a08173ffffffffffffffffffffffffffffffffffffffff168152505060c86004819055508060058190555060046006819055506007604051806080016040528060805173ffffffffffffffffffffffffffffffffffffffff1681526020016103e881526020016221903f81526020016000815250908060018154018082558091505060019003906000526020600020906004020160009091909190915060008201518160000160006101000a81548173ffffffffffffffffffffffffffffffffffffffff021916908373ffffffffffffffffffffffffffffffffffffffff16021790555060208201518160010155604082015181600201556060820151816003015550506103e860098190555050506200034a565b600033905090565b600080fd5b600073ffffffffffffffffffffffffffffffffffffffff82169050919050565b6000620002908262000263565b9050919050565b620002a28162000283565b8114620002ae57600080fd5b50565b600081519050620002c28162000297565b92915050565b6000819050919050565b620002dd81620002c8565b8114620002e957600080fd5b50565b600081519050620002fd81620002d2565b92915050565b600080604083850312156200031d576200031c6200025e565b5b60006200032d85828601620002b1565b92505060206200034085828601620002ec565b9150509250929050565b60805160a0516130b762000393600039600081816105520152818161063d0152818161087d01528181610df0015281816113ee0152611b0e01526000610c9901526130b76000f3fe608060405234801561001057600080fd5b50600436106101735760003560e01c806380dc0672116100de578063a913a5f711610097578063f2fde38b11610071578063f2fde38b146103a8578063f40f0f52146103c4578063f7c618c1146103f4578063ff16ef391461041257610173565b8063a913a5f714610352578063b6b55f2514610382578063db2e21bc1461039e57610173565b806380dc0672146102b6578063817b1cd2146102c05780638c09c135146102de5780638da5cb5b146102fa5780638e0b019814610318578063999e2f751461033457610173565b8063630b5ba111610130578063630b5ba11461023e578063715018a61461024857806372f702f314610252578063746c8ae11461027057806378c196f31461027a5780637b280def1461029857610173565b806304554443146101785780631526fe27146101965780631959a002146101c95780633279beab146101fa5780633bcfc4b8146102165780633ccfd60b14610234575b600080fd5b61018061042e565b60405161018d91906123e0565b60405180910390f35b6101b060048036038101906101ab919061242c565b610434565b6040516101c094939291906124d8565b60405180910390f35b6101e360048036038101906101de919061255b565b610494565b6040516101f1929190612588565b60405180910390f35b610214600480360381019061020f919061242c565b6104b8565b005b61021e610684565b60405161022b91906123e0565b60405180910390f35b61023c61068a565b005b610246610a7c565b005b610250610b44565b005b61025a610c97565b60405161026791906125b1565b60405180910390f35b610278610cbb565b005b610282610de9565b60405161028f91906123e0565b60405180910390f35b6102a0610e97565b6040516102ad91906123e0565b60405180910390f35b6102be610e9d565b005b6102c8610f46565b6040516102d591906123e0565b60405180910390f35b6102f860048036038101906102f3919061242c565b610f4c565b005b610302611031565b60405161030f91906125db565b60405180910390f35b610332600480360381019061032d919061242c565b61105a565b005b61033c61113d565b60405161034991906123e0565b60405180910390f35b61036c6004803603810190610367919061255b565b6111c7565b60405161037991906123e0565b60405180910390f35b61039c6004803603810190610397919061242c565b6111df565b005b6103a66116ac565b005b6103c260048036038101906103bd919061255b565b6118f6565b005b6103de60048036038101906103d9919061255b565b611997565b6040516103eb91906123e0565b60405180910390f35b6103fc611b0c565b60405161040991906125b1565b60405180910390f35b61042c6004803603810190610427919061242c565b611b30565b005b60055481565b6007818154811061044457600080fd5b90600052602060002090600402016000915090508060000160009054906101000a900473ffffffffffffffffffffffffffffffffffffffff16908060010154908060020154908060030154905084565b60086020528060005260406000206000915090508060000154908060010154905082565b6104c0611c1e565b73ffffffffffffffffffffffffffffffffffffffff1660008054906101000a900473ffffffffffffffffffffffffffffffffffffffff1673ffffffffffffffffffffffffffffffffffffffff161461054d576040517f08c379a000000000000000000000000000000000000000000000000000000000815260040161054490612653565b60405180910390fd5b6003547f000000000000000000000000000000000000000000000000000000000000000073ffffffffffffffffffffffffffffffffffffffff166370a08231306040518263ffffffff1660e01b81526004016105a991906125db565b602060405180830381865afa1580156105c6573d6000803e3d6000fd5b505050506040513d601f19601f820116820180604052508101906105ea9190612688565b6105f491906126e4565b811115610636576040517f08c379a000000000000000000000000000000000000000000000000000000000815260040161062d90612764565b60405180910390fd5b61068133827f000000000000000000000000000000000000000000000000000000000000000073ffffffffffffffffffffffffffffffffffffffff16611c269092919063ffffffff16565b50565b60045481565b600260015414156106d0576040517f08c379a00000000000000000000000000000000000000000000000000000000081526004016106c7906127d0565b60405180910390fd5b600260018190555042600260003373ffffffffffffffffffffffffffffffffffffffff1673ffffffffffffffffffffffffffffffffffffffff16815260200190815260200160002054111561075a576040517f08c379a00000000000000000000000000000000000000000000000000000000081526004016107519061283c565b60405180910390fd5b600060076000815481106107715761077061285c565b5b906000526020600020906004020190506000600860003373ffffffffffffffffffffffffffffffffffffffff1673ffffffffffffffffffffffffffffffffffffffff16815260200190815260200160002090506000816000015490506107d76000611cac565b6000610821836001015461081364e8d4a5100061080588600301548860000154611d9190919063ffffffff16565b611e0c90919063ffffffff16565b611e5690919063ffffffff16565b905060008111156108c257610834610de9565b811115610876576040517f08c379a000000000000000000000000000000000000000000000000000000000815260040161086d906128fd565b60405180910390fd5b6108c133827f000000000000000000000000000000000000000000000000000000000000000073ffffffffffffffffffffffffffffffffffffffff16611c269092919063ffffffff16565b5b600082111561093e576000836000018190555081600360008282546108e791906126e4565b9250508190555061093d33838660000160009054906101000a900473ffffffffffffffffffffffffffffffffffffffff1673ffffffffffffffffffffffffffffffffffffffff16611c269092919063ffffffff16565b5b61097064e8d4a5100061096286600301548660000154611d9190919063ffffffff16565b611e0c90919063ffffffff16565b83600101819055506000836000015411156109db5760055442610993919061291d565b600260003373ffffffffffffffffffffffffffffffffffffffff1673ffffffffffffffffffffffffffffffffffffffff16815260200190815260200160002081905550610a21565b6000600260003373ffffffffffffffffffffffffffffffffffffffff1673ffffffffffffffffffffffffffffffffffffffff168152602001908152602001600020819055505b3373ffffffffffffffffffffffffffffffffffffffff167f884edad9ce6fa2440d8a54cc123490eb96d2768479d49ff9c7366125a942436483604051610a6791906123e0565b60405180910390a25050505060018081905550565b610a84611c1e565b73ffffffffffffffffffffffffffffffffffffffff1660008054906101000a900473ffffffffffffffffffffffffffffffffffffffff1673ffffffffffffffffffffffffffffffffffffffff1614610b11576040517f08c379a0000000000000000000000000000000000000000000000000000000008152600401610b0890612653565b60405180910390fd5b6000600780549050905060005b81811015610b4057610b2f81611cac565b80610b3990612973565b9050610b1e565b5050565b610b4c611c1e565b73ffffffffffffffffffffffffffffffffffffffff1660008054906101000a900473ffffffffffffffffffffffffffffffffffffffff1673ffffffffffffffffffffffffffffffffffffffff1614610bd9576040517f08c379a0000000000000000000000000000000000000000000000000000000008152600401610bd090612653565b60405180910390fd5b600073ffffffffffffffffffffffffffffffffffffffff1660008054906101000a900473ffffffffffffffffffffffffffffffffffffffff1673ffffffffffffffffffffffffffffffffffffffff167f8be0079c531659141344cd1fd0a4f28419497f9722a3daafe3b4186f6b6457e060405160405180910390a360008060006101000a81548173ffffffffffffffffffffffffffffffffffffffff021916908373ffffffffffffffffffffffffffffffffffffffff160217905550565b7f000000000000000000000000000000000000000000000000000000000000000081565b610cc3611c1e565b73ffffffffffffffffffffffffffffffffffffffff1660008054906101000a900473ffffffffffffffffffffffffffffffffffffffff1673ffffffffffffffffffffffffffffffffffffffff1614610d50576040517f08c379a0000000000000000000000000000000000000000000000000000000008152600401610d4790612653565b60405180910390fd5b63014ca2bf6007600081548110610d6a57610d6961285c565b5b90600052602060002090600402016002015414610dbc576040517f08c379a0000000000000000000000000000000000000000000000000000000008152600401610db390612a08565b60405180910390fd5b426007600081548110610dd257610dd161285c565b5b906000526020600020906004020160020181905550565b60006003547f000000000000000000000000000000000000000000000000000000000000000073ffffffffffffffffffffffffffffffffffffffff166370a08231306040518263ffffffff1660e01b8152600401610e4791906125db565b602060405180830381865afa158015610e64573d6000803e3d6000fd5b505050506040513d601f19601f82011682018060405250810190610e889190612688565b610e9291906126e4565b905090565b60065481565b610ea5611c1e565b73ffffffffffffffffffffffffffffffffffffffff1660008054906101000a900473ffffffffffffffffffffffffffffffffffffffff1673ffffffffffffffffffffffffffffffffffffffff1614610f32576040517f08c379a0000000000000000000000000000000000000000000000000000000008152600401610f2990612653565b60405180910390fd5b610f3c6000611cac565b6000600481905550565b60035481565b610f54611c1e565b73ffffffffffffffffffffffffffffffffffffffff1660008054906101000a900473ffffffffffffffffffffffffffffffffffffffff1673ffffffffffffffffffffffffffffffffffffffff1614610fe1576040517f08c379a0000000000000000000000000000000000000000000000000000000008152600401610fd890612653565b60405180910390fd5b6224ea00811115611027576040517f08c379a000000000000000000000000000000000000000000000000000000000815260040161101e90612a74565b60405180910390fd5b8060058190555050565b60008060009054906101000a900473ffffffffffffffffffffffffffffffffffffffff16905090565b611062611c1e565b73ffffffffffffffffffffffffffffffffffffffff1660008054906101000a900473ffffffffffffffffffffffffffffffffffffffff1673ffffffffffffffffffffffffffffffffffffffff16146110ef576040517f08c379a00000000000000000000000000000000000000000000000000000000081526004016110e690612653565b60405180910390fd5b6014811115611133576040517f08c379a000000000000000000000000000000000000000000000000000000000815260040161112a90612ae0565b60405180910390fd5b8060068190555050565b60008060076000815481106111555761115461285c565b5b90600052602060002090600402019050428160020154111561117b5760009150506111c4565b6301e13380606460045460035484600201544261119891906126e4565b6111a29190612b00565b6111ac9190612b00565b6111b69190612b89565b6111c09190612b89565b9150505b90565b60026020528060005260406000206000915090505481565b60026001541415611225576040517f08c379a000000000000000000000000000000000000000000000000000000000815260040161121c906127d0565b60405180910390fd5b60026001819055506000600260003373ffffffffffffffffffffffffffffffffffffffff1673ffffffffffffffffffffffffffffffffffffffff1681526020019081526020016000205414156112c75760055442611283919061291d565b600260003373ffffffffffffffffffffffffffffffffffffffff1673ffffffffffffffffffffffffffffffffffffffff168152602001908152602001600020819055505b600060076000815481106112de576112dd61285c565b5b906000526020600020906004020190506000600860003373ffffffffffffffffffffffffffffffffffffffff1673ffffffffffffffffffffffffffffffffffffffff168152602001908152602001600020905061133b6000611cac565b600081600001541115611435576000611392826001015461138464e8d4a5100061137687600301548760000154611d9190919063ffffffff16565b611e0c90919063ffffffff16565b611e5690919063ffffffff16565b90506000811115611433576113a5610de9565b8111156113e7576040517f08c379a00000000000000000000000000000000000000000000000000000000081526004016113de906128fd565b60405180910390fd5b61143233827f000000000000000000000000000000000000000000000000000000000000000073ffffffffffffffffffffffffffffffffffffffff16611c269092919063ffffffff16565b5b505b6000808411156116175760008360000160009054906101000a900473ffffffffffffffffffffffffffffffffffffffff1673ffffffffffffffffffffffffffffffffffffffff166370a08231306040518263ffffffff1660e01b815260040161149e91906125db565b602060405180830381865afa1580156114bb573d6000803e3d6000fd5b505050506040513d601f19601f820116820180604052508101906114df9190612688565b90506115323330878760000160009054906101000a900473ffffffffffffffffffffffffffffffffffffffff1673ffffffffffffffffffffffffffffffffffffffff16611ea0909392919063ffffffff16565b808460000160009054906101000a900473ffffffffffffffffffffffffffffffffffffffff1673ffffffffffffffffffffffffffffffffffffffff166370a08231306040518263ffffffff1660e01b815260040161159091906125db565b602060405180830381865afa1580156115ad573d6000803e3d6000fd5b505050506040513d601f19601f820116820180604052508101906115d19190612688565b6115db91906126e4565b91506115f4828460000154611f2990919063ffffffff16565b8360000181905550816003600082825461160e919061291d565b92505081905550505b61164964e8d4a5100061163b85600301548560000154611d9190919063ffffffff16565b611e0c90919063ffffffff16565b82600101819055503373ffffffffffffffffffffffffffffffffffffffff167fe1fffcc4923d04b559f4d29a8bfc6cda04eb5b0d3c460751c2402c5c5cc9109c8560405161169791906123e0565b60405180910390a25050506001808190555050565b600260015414156116f2576040517f08c379a00000000000000000000000000000000000000000000000000000000081526004016116e9906127d0565b60405180910390fd5b6002600181905550600060076000815481106117115761171061285c565b5b906000526020600020906004020190506000600860003373ffffffffffffffffffffffffffffffffffffffff1673ffffffffffffffffffffffffffffffffffffffff1681526020019081526020016000209050600081600001549050806003600082825461177f91906126e4565b9250508190555042600260003373ffffffffffffffffffffffffffffffffffffffff1673ffffffffffffffffffffffffffffffffffffffff16815260200190815260200160002054106117f4576064600654826117dc9190612b00565b6117e69190612b89565b816117f191906126e4565b90505b6000600260003373ffffffffffffffffffffffffffffffffffffffff1673ffffffffffffffffffffffffffffffffffffffff1681526020019081526020016000208190555061188833828560000160009054906101000a900473ffffffffffffffffffffffffffffffffffffffff1673ffffffffffffffffffffffffffffffffffffffff16611c269092919063ffffffff16565b60008260000181905550600082600101819055503373ffffffffffffffffffffffffffffffffffffffff167f5fafa99d0643513820be26656b45130b01e1c03062e1266bf36f88cbd3bd9695826040516118e291906123e0565b60405180910390a250505060018081905550565b6118fe611c1e565b73ffffffffffffffffffffffffffffffffffffffff1660008054906101000a900473ffffffffffffffffffffffffffffffffffffffff1673ffffffffffffffffffffffffffffffffffffffff161461198b576040517f08c379a000000000000000000000000000000000000000000000000000000000815260040161198290612653565b60405180910390fd5b61199481611f87565b50565b60008060076000815481106119af576119ae61285c565b5b906000526020600020906004020190506000600860008573ffffffffffffffffffffffffffffffffffffffff1673ffffffffffffffffffffffffffffffffffffffff168152602001908152602001600020905063014ca2bf82600201541415611a1d57600092505050611b07565b60008260030154905060006003549050836002015442118015611a41575060008114155b15611abc576000611a7a600954611a6c8760010154611a5e61113d565b611d9190919063ffffffff16565b611e0c90919063ffffffff16565b9050611ab8611aa983611a9b64e8d4a5100085611d9190919063ffffffff16565b611e0c90919063ffffffff16565b84611f2990919063ffffffff16565b9250505b611b008360010154611af264e8d4a51000611ae4868860000154611d9190919063ffffffff16565b611e0c90919063ffffffff16565b611e5690919063ffffffff16565b9450505050505b919050565b7f000000000000000000000000000000000000000000000000000000000000000081565b611b38611c1e565b73ffffffffffffffffffffffffffffffffffffffff1660008054906101000a900473ffffffffffffffffffffffffffffffffffffffff1673ffffffffffffffffffffffffffffffffffffffff1614611bc5576040517f08c379a0000000000000000000000000000000000000000000000000000000008152600401611bbc90612653565b60405180910390fd5b612710811115611c0a576040517f08c379a0000000000000000000000000000000000000000000000000000000008152600401611c0190612c06565b60405180910390fd5b611c146000611cac565b8060048190555050565b600033905090565b611ca78363a9059cbb60e01b8484604051602401611c45929190612c26565b604051602081830303815290604052907bffffffffffffffffffffffffffffffffffffffffffffffffffffffff19166020820180517bffffffffffffffffffffffffffffffffffffffffffffffffffffffff83818316178352505050506120b4565b505050565b600060078281548110611cc257611cc161285c565b5b9060005260206000209060040201905080600201544211611ce35750611d8e565b600060035490506000811415611d03574282600201819055505050611d8e565b6000611d37600954611d298560010154611d1b61113d565b611d9190919063ffffffff16565b611e0c90919063ffffffff16565b9050611d79611d6683611d5864e8d4a5100085611d9190919063ffffffff16565b611e0c90919063ffffffff16565b8460030154611f2990919063ffffffff16565b83600301819055504283600201819055505050505b50565b600080831415611da45760009050611e06565b60008284611db29190612b00565b9050828482611dc19190612b89565b14611e01576040517f08c379a0000000000000000000000000000000000000000000000000000000008152600401611df890612cc1565b60405180910390fd5b809150505b92915050565b6000611e4e83836040518060400160405280601a81526020017f536166654d6174683a206469766973696f6e206279207a65726f00000000000081525061217b565b905092915050565b6000611e9883836040518060400160405280601e81526020017f536166654d6174683a207375627472616374696f6e206f766572666c6f7700008152506121de565b905092915050565b611f23846323b872dd60e01b858585604051602401611ec193929190612ce1565b604051602081830303815290604052907bffffffffffffffffffffffffffffffffffffffffffffffffffffffff19166020820180517bffffffffffffffffffffffffffffffffffffffffffffffffffffffff83818316178352505050506120b4565b50505050565b6000808284611f38919061291d565b905083811015611f7d576040517f08c379a0000000000000000000000000000000000000000000000000000000008152600401611f7490612d64565b60405180910390fd5b8091505092915050565b600073ffffffffffffffffffffffffffffffffffffffff168173ffffffffffffffffffffffffffffffffffffffff161415611ff7576040517f08c379a0000000000000000000000000000000000000000000000000000000008152600401611fee90612df6565b60405180910390fd5b8073ffffffffffffffffffffffffffffffffffffffff1660008054906101000a900473ffffffffffffffffffffffffffffffffffffffff1673ffffffffffffffffffffffffffffffffffffffff167f8be0079c531659141344cd1fd0a4f28419497f9722a3daafe3b4186f6b6457e060405160405180910390a3806000806101000a81548173ffffffffffffffffffffffffffffffffffffffff021916908373ffffffffffffffffffffffffffffffffffffffff16021790555050565b6000612116826040518060400160405280602081526020017f5361666542455032303a206c6f772d6c6576656c2063616c6c206661696c65648152508573ffffffffffffffffffffffffffffffffffffffff166122429092919063ffffffff16565b905060008151111561217657808060200190518101906121369190612e4e565b612175576040517f08c379a000000000000000000000000000000000000000000000000000000000815260040161216c90612eed565b60405180910390fd5b5b505050565b600080831182906121c2576040517f08c379a00000000000000000000000000000000000000000000000000000000081526004016121b99190612f95565b60405180910390fd5b50600083856121d19190612b89565b9050809150509392505050565b6000838311158290612226576040517f08c379a000000000000000000000000000000000000000000000000000000000815260040161221d9190612f95565b60405180910390fd5b506000838561223591906126e4565b9050809150509392505050565b6060612251848460008561225a565b90509392505050565b60606122658561237c565b6122a4576040517f08c379a000000000000000000000000000000000000000000000000000000000815260040161229b90613003565b60405180910390fd5b6000808673ffffffffffffffffffffffffffffffffffffffff1685876040516122cd919061306a565b60006040518083038185875af1925050503d806000811461230a576040519150601f19603f3d011682016040523d82523d6000602084013e61230f565b606091505b50915091508115612324578092505050612374565b6000815111156123375780518082602001fd5b836040517f08c379a000000000000000000000000000000000000000000000000000000000815260040161236b9190612f95565b60405180910390fd5b949350505050565b60008060007fc5d2460186f7233c927e7db2dcc703c0e500b653ca82273b7bfad8045d85a47060001b9050833f91508082141580156123be57506000801b8214155b92505050919050565b6000819050919050565b6123da816123c7565b82525050565b60006020820190506123f560008301846123d1565b92915050565b600080fd5b612409816123c7565b811461241457600080fd5b50565b60008135905061242681612400565b92915050565b600060208284031215612442576124416123fb565b5b600061245084828501612417565b91505092915050565b600073ffffffffffffffffffffffffffffffffffffffff82169050919050565b6000819050919050565b600061249e61249961249484612459565b612479565b612459565b9050919050565b60006124b082612483565b9050919050565b60006124c2826124a5565b9050919050565b6124d2816124b7565b82525050565b60006080820190506124ed60008301876124c9565b6124fa60208301866123d1565b61250760408301856123d1565b61251460608301846123d1565b95945050505050565b600061252882612459565b9050919050565b6125388161251d565b811461254357600080fd5b50565b6000813590506125558161252f565b92915050565b600060208284031215612571576125706123fb565b5b600061257f84828501612546565b91505092915050565b600060408201905061259d60008301856123d1565b6125aa60208301846123d1565b9392505050565b60006020820190506125c660008301846124c9565b92915050565b6125d58161251d565b82525050565b60006020820190506125f060008301846125cc565b92915050565b600082825260208201905092915050565b7f4f776e61626c653a2063616c6c6572206973206e6f7420746865206f776e6572600082015250565b600061263d6020836125f6565b915061264882612607565b602082019050919050565b6000602082019050818103600083015261266c81612630565b9050919050565b60008151905061268281612400565b92915050565b60006020828403121561269e5761269d6123fb565b5b60006126ac84828501612673565b91505092915050565b7f4e487b7100000000000000000000000000000000000000000000000000000000600052601160045260246000fd5b60006126ef826123c7565b91506126fa836123c7565b92508282101561270d5761270c6126b5565b5b828203905092915050565b7f6e6f7420656e6f75676820746f6b656e7320746f2074616b65206f7574000000600082015250565b600061274e601d836125f6565b915061275982612718565b602082019050919050565b6000602082019050818103600083015261277d81612741565b9050919050565b7f5265656e7472616e637947756172643a207265656e7472616e742063616c6c00600082015250565b60006127ba601f836125f6565b91506127c582612784565b602082019050919050565b600060208201905081810360008301526127e9816127ad565b9050919050565b7f4d6179206e6f7420646f206e6f726d616c207769746864726177206561726c79600082015250565b60006128266020836125f6565b9150612831826127f0565b602082019050919050565b6000602082019050818103600083015261285581612819565b9050919050565b7f4e487b7100000000000000000000000000000000000000000000000000000000600052603260045260246000fd5b7f43616e6e6f74207769746864726177206f746865722070656f706c652773207360008201527f74616b656420746f6b656e732e2020436f6e7461637420616e2061646d696e2e602082015250565b60006128e76040836125f6565b91506128f28261288b565b604082019050919050565b60006020820190508181036000830152612916816128da565b9050919050565b6000612928826123c7565b9150612933836123c7565b9250827fffffffffffffffffffffffffffffffffffffffffffffffffffffffffffffffff03821115612968576129676126b5565b5b828201905092915050565b600061297e826123c7565b91507fffffffffffffffffffffffffffffffffffffffffffffffffffffffffffffffff8214156129b1576129b06126b5565b5b600182019050919050565b7f43616e206f6e6c792073746172742072657761726473206f6e63650000000000600082015250565b60006129f2601b836125f6565b91506129fd826129bc565b602082019050919050565b60006020820190508181036000830152612a21816129e5565b9050919050565b7f4475726174696f6e206d7573742062652062656c6f772032207765656b730000600082015250565b6000612a5e601e836125f6565b9150612a6982612a28565b602082019050919050565b60006020820190508181036000830152612a8d81612a51565b9050919050565b7f4d6179206e6f742073657420686967686572207468616e203230250000000000600082015250565b6000612aca601b836125f6565b9150612ad582612a94565b602082019050919050565b60006020820190508181036000830152612af981612abd565b9050919050565b6000612b0b826123c7565b9150612b16836123c7565b9250817fffffffffffffffffffffffffffffffffffffffffffffffffffffffffffffffff0483118215151615612b4f57612b4e6126b5565b5b828202905092915050565b7f4e487b7100000000000000000000000000000000000000000000000000000000600052601260045260246000fd5b6000612b94826123c7565b9150612b9f836123c7565b925082612baf57612bae612b5a565b5b828204905092915050565b7f415059206d7573742062652062656c6f77203130303030250000000000000000600082015250565b6000612bf06018836125f6565b9150612bfb82612bba565b602082019050919050565b60006020820190508181036000830152612c1f81612be3565b9050919050565b6000604082019050612c3b60008301856125cc565b612c4860208301846123d1565b9392505050565b7f536166654d6174683a206d756c7469706c69636174696f6e206f766572666c6f60008201527f7700000000000000000000000000000000000000000000000000000000000000602082015250565b6000612cab6021836125f6565b9150612cb682612c4f565b604082019050919050565b60006020820190508181036000830152612cda81612c9e565b9050919050565b6000606082019050612cf660008301866125cc565b612d0360208301856125cc565b612d1060408301846123d1565b949350505050565b7f536166654d6174683a206164646974696f6e206f766572666c6f770000000000600082015250565b6000612d4e601b836125f6565b9150612d5982612d18565b602082019050919050565b60006020820190508181036000830152612d7d81612d41565b9050919050565b7f4f776e61626c653a206e6577206f776e657220697320746865207a65726f206160008201527f6464726573730000000000000000000000000000000000000000000000000000602082015250565b6000612de06026836125f6565b9150612deb82612d84565b604082019050919050565b60006020820190508181036000830152612e0f81612dd3565b9050919050565b60008115159050919050565b612e2b81612e16565b8114612e3657600080fd5b50565b600081519050612e4881612e22565b92915050565b600060208284031215612e6457612e636123fb565b5b6000612e7284828501612e39565b91505092915050565b7f5361666542455032303a204245503230206f7065726174696f6e20646964206e60008201527f6f74207375636365656400000000000000000000000000000000000000000000602082015250565b6000612ed7602a836125f6565b9150612ee282612e7b565b604082019050919050565b60006020820190508181036000830152612f0681612eca565b9050919050565b600081519050919050565b60005b83811015612f36578082015181840152602081019050612f1b565b83811115612f45576000848401525b50505050565b6000601f19601f8301169050919050565b6000612f6782612f0d565b612f7181856125f6565b9350612f81818560208601612f18565b612f8a81612f4b565b840191505092915050565b60006020820190508181036000830152612faf8184612f5c565b905092915050565b7f416464726573733a2063616c6c20746f206e6f6e2d636f6e7472616374000000600082015250565b6000612fed601d836125f6565b9150612ff882612fb7565b602082019050919050565b6000602082019050818103600083015261301c81612fe0565b9050919050565b600081519050919050565b600081905092915050565b600061304482613023565b61304e818561302e565b935061305e818560208601612f18565b80840191505092915050565b60006130768284613039565b91508190509291505056fea26469706673582212201567c77312aafd348603994f33be54191f8374434381b23059f462c677ee0e5464736f6c634300080b0033",
    "linkReferences": {},
    "deployedLinkReferences": {}
}