{
  "_format": "hh-sol-artifact-1",
  "contractName": "StakingPoolV3Flat",
  "sourceName": "contracts/StakingV3Pool.sol",
  "abi": [
    {
      "inputs": [
        {
          "internalType": "contract IERC20",
          "name": "_stakedToken",
          "type": "address"
        },
        {
          "internalType": "contract IERC20",
          "name": "_rewardToken",
          "type": "address"
        },
        {
          "internalType": "uint256",
          "name": "_rewardPerSecond",
          "type": "uint256"
        },
        {
          "internalType": "uint256",
          "name": "_startTime",
          "type": "uint256"
        },
        {
          "internalType": "uint256",
          "name": "_endTime",
          "type": "uint256"
        },
        {
          "internalType": "uint256",
          "name": "_lockDuration",
          "type": "uint256"
        }
      ],
      "stateMutability": "nonpayable",
      "type": "constructor"
    },
    {
      "inputs": [
        {
          "internalType": "address",
          "name": "owner",
          "type": "address"
        }
      ],
      "name": "OwnableInvalidOwner",
      "type": "error"
    },
    {
      "inputs": [
        {
          "internalType": "address",
          "name": "account",
          "type": "address"
        }
      ],
      "name": "OwnableUnauthorizedAccount",
      "type": "error"
    },
    {
      "inputs": [],
      "name": "ReentrancyGuardReentrantCall",
      "type": "error"
    },
    {
      "inputs": [
        {
          "internalType": "address",
          "name": "token",
          "type": "address"
        }
      ],
      "name": "SafeERC20FailedOperation",
      "type": "error"
    },
    {
      "anonymous": false,
      "inputs": [
        {
          "indexed": true,
          "internalType": "address",
          "name": "user",
          "type": "address"
        },
        {
          "indexed": false,
          "internalType": "uint256",
          "name": "amount",
          "type": "uint256"
        }
      ],
      "name": "EAddRewardTokens",
      "type": "event"
    },
    {
      "anonymous": false,
      "inputs": [
        {
          "indexed": true,
          "internalType": "address",
          "name": "user",
          "type": "address"
        },
        {
          "indexed": false,
          "internalType": "uint256",
          "name": "amount",
          "type": "uint256"
        },
        {
          "indexed": false,
          "internalType": "uint256",
          "name": "depositId",
          "type": "uint256"
        }
      ],
      "name": "EDeposit",
      "type": "event"
    },
    {
      "anonymous": false,
      "inputs": [
        {
          "indexed": true,
          "internalType": "address",
          "name": "user",
          "type": "address"
        },
        {
          "indexed": false,
          "internalType": "uint256",
          "name": "amount",
          "type": "uint256"
        },
        {
          "indexed": false,
          "internalType": "uint256",
          "name": "depositId",
          "type": "uint256"
        }
      ],
      "name": "EWithdraw",
      "type": "event"
    },
    {
      "anonymous": false,
      "inputs": [
        {
          "indexed": true,
          "internalType": "address",
          "name": "previousOwner",
          "type": "address"
        },
        {
          "indexed": true,
          "internalType": "address",
          "name": "newOwner",
          "type": "address"
        }
      ],
      "name": "OwnershipTransferred",
      "type": "event"
    },
    {
      "inputs": [],
      "name": "accTokenPerShare",
      "outputs": [
        {
          "internalType": "uint256",
          "name": "",
          "type": "uint256"
        }
      ],
      "stateMutability": "view",
      "type": "function"
    },
    {
      "inputs": [
        {
          "internalType": "uint256",
          "name": "_amount",
          "type": "uint256"
        }
      ],
      "name": "addRewardTokens",
      "outputs": [],
      "stateMutability": "nonpayable",
      "type": "function"
    },
    {
      "inputs": [
        {
          "internalType": "uint256",
          "name": "_amount",
          "type": "uint256"
        }
      ],
      "name": "correctRewardTokens",
      "outputs": [],
      "stateMutability": "nonpayable",
      "type": "function"
    },
    {
      "inputs": [
        {
          "internalType": "address",
          "name": "",
          "type": "address"
        },
        {
          "internalType": "address",
          "name": "",
          "type": "address"
        }
      ],
      "name": "delegators",
      "outputs": [
        {
          "internalType": "bool",
          "name": "",
          "type": "bool"
        }
      ],
      "stateMutability": "view",
      "type": "function"
    },
    {
      "inputs": [
        {
          "internalType": "address",
          "name": "",
          "type": "address"
        },
        {
          "internalType": "uint256",
          "name": "",
          "type": "uint256"
        }
      ],
      "name": "depositInfos",
      "outputs": [
        {
          "internalType": "uint256",
          "name": "amount",
          "type": "uint256"
        },
        {
          "internalType": "uint256",
          "name": "lockFrom",
          "type": "uint256"
        },
        {
          "internalType": "uint256",
          "name": "lockTo",
          "type": "uint256"
        },
        {
          "internalType": "uint256",
          "name": "rewardDebt",
          "type": "uint256"
        },
        {
          "internalType": "uint256",
          "name": "rewardPending",
          "type": "uint256"
        }
      ],
      "stateMutability": "view",
      "type": "function"
    },
    {
      "inputs": [
        {
          "internalType": "uint256",
          "name": "_amount",
          "type": "uint256"
        }
      ],
      "name": "depositTokens",
      "outputs": [],
      "stateMutability": "nonpayable",
      "type": "function"
    },
    {
      "inputs": [
        {
          "internalType": "address",
          "name": "_token",
          "type": "address"
        },
        {
          "internalType": "address",
          "name": "_to",
          "type": "address"
        },
        {
          "internalType": "uint256",
          "name": "_amount",
          "type": "uint256"
        }
      ],
      "name": "emergencyWithdrawTokens",
      "outputs": [],
      "stateMutability": "nonpayable",
      "type": "function"
    },
    {
      "inputs": [],
      "name": "endTime",
      "outputs": [
        {
          "internalType": "uint256",
          "name": "",
          "type": "uint256"
        }
      ],
      "stateMutability": "view",
      "type": "function"
    },
    {
      "inputs": [],
      "name": "freezeEndTime",
      "outputs": [
        {
          "internalType": "uint256",
          "name": "",
          "type": "uint256"
        }
      ],
      "stateMutability": "view",
      "type": "function"
    },
    {
      "inputs": [],
      "name": "freezeStartTime",
      "outputs": [
        {
          "internalType": "uint256",
          "name": "",
          "type": "uint256"
        }
      ],
      "stateMutability": "view",
      "type": "function"
    },
    {
      "inputs": [],
      "name": "getUserListLength",
      "outputs": [
        {
          "internalType": "uint256",
          "name": "",
          "type": "uint256"
        }
      ],
      "stateMutability": "view",
      "type": "function"
    },
    {
      "inputs": [
        {
          "internalType": "uint256",
          "name": "_offset",
          "type": "uint256"
        },
        {
          "internalType": "uint256",
          "name": "_limit",
          "type": "uint256"
        }
      ],
      "name": "getUsersPaging",
      "outputs": [
        {
          "components": [
            {
              "internalType": "bool",
              "name": "isAdded",
              "type": "bool"
            },
            {
              "internalType": "address",
              "name": "addr",
              "type": "address"
            },
            {
              "internalType": "uint256",
              "name": "totalAmount",
              "type": "uint256"
            },
            {
              "internalType": "uint256",
              "name": "nextDepositId",
              "type": "uint256"
            }
          ],
          "internalType": "struct StakingPoolV3Flat.UserInfo[]",
          "name": "users",
          "type": "tuple[]"
        },
        {
          "internalType": "uint256",
          "name": "nextOffset",
          "type": "uint256"
        },
        {
          "internalType": "uint256",
          "name": "total",
          "type": "uint256"
        }
      ],
      "stateMutability": "view",
      "type": "function"
    },
    {
      "inputs": [],
      "name": "isFrozen",
      "outputs": [
        {
          "internalType": "bool",
          "name": "",
          "type": "bool"
        }
      ],
      "stateMutability": "view",
      "type": "function"
    },
    {
      "inputs": [],
      "name": "lastRewardTime",
      "outputs": [
        {
          "internalType": "uint256",
          "name": "",
          "type": "uint256"
        }
      ],
      "stateMutability": "view",
      "type": "function"
    },
    {
      "inputs": [],
      "name": "lockDuration",
      "outputs": [
        {
          "internalType": "uint256",
          "name": "",
          "type": "uint256"
        }
      ],
      "stateMutability": "view",
      "type": "function"
    },
    {
      "inputs": [],
      "name": "minDepositAmount",
      "outputs": [
        {
          "internalType": "uint256",
          "name": "",
          "type": "uint256"
        }
      ],
      "stateMutability": "view",
      "type": "function"
    },
    {
      "inputs": [],
      "name": "owner",
      "outputs": [
        {
          "internalType": "address",
          "name": "",
          "type": "address"
        }
      ],
      "stateMutability": "view",
      "type": "function"
    },
    {
      "inputs": [
        {
          "internalType": "address",
          "name": "_user",
          "type": "address"
        },
        {
          "internalType": "uint256",
          "name": "_depositId",
          "type": "uint256"
        }
      ],
      "name": "pendingReward",
      "outputs": [
        {
          "internalType": "uint256",
          "name": "",
          "type": "uint256"
        }
      ],
      "stateMutability": "view",
      "type": "function"
    },
    {
      "inputs": [],
      "name": "poolLimitPerUser",
      "outputs": [
        {
          "internalType": "uint256",
          "name": "",
          "type": "uint256"
        }
      ],
      "stateMutability": "view",
      "type": "function"
    },
    {
      "inputs": [
        {
          "internalType": "address",
          "name": "_tokenAddress",
          "type": "address"
        },
        {
          "internalType": "uint256",
          "name": "_tokenAmount",
          "type": "uint256"
        }
      ],
      "name": "recoverWrongTokens",
      "outputs": [],
      "stateMutability": "nonpayable",
      "type": "function"
    },
    {
      "inputs": [],
      "name": "renounceOwnership",
      "outputs": [],
      "stateMutability": "nonpayable",
      "type": "function"
    },
    {
      "inputs": [],
      "name": "rewardPerSecond",
      "outputs": [
        {
          "internalType": "uint256",
          "name": "",
          "type": "uint256"
        }
      ],
      "stateMutability": "view",
      "type": "function"
    },
    {
      "inputs": [],
      "name": "rewardToken",
      "outputs": [
        {
          "internalType": "contract IERC20",
          "name": "",
          "type": "address"
        }
      ],
      "stateMutability": "view",
      "type": "function"
    },
    {
      "inputs": [
        {
          "internalType": "uint256",
          "name": "_amount",
          "type": "uint256"
        }
      ],
      "name": "safeWithdrawReward",
      "outputs": [],
      "stateMutability": "nonpayable",
      "type": "function"
    },
    {
      "inputs": [
        {
          "internalType": "address",
          "name": "_delegator",
          "type": "address"
        },
        {
          "internalType": "bool",
          "name": "_status",
          "type": "bool"
        }
      ],
      "name": "setDelegators",
      "outputs": [],
      "stateMutability": "nonpayable",
      "type": "function"
    },
    {
      "inputs": [
        {
          "internalType": "uint256",
          "name": "_freezeStartTime",
          "type": "uint256"
        },
        {
          "internalType": "uint256",
          "name": "_freezeEndTime",
          "type": "uint256"
        }
      ],
      "name": "setFreezaTimes",
      "outputs": [],
      "stateMutability": "nonpayable",
      "type": "function"
    },
    {
      "inputs": [
        {
          "internalType": "uint256",
          "name": "_duration",
          "type": "uint256"
        }
      ],
      "name": "setLockDuration",
      "outputs": [],
      "stateMutability": "nonpayable",
      "type": "function"
    },
    {
      "inputs": [
        {
          "internalType": "uint256",
          "name": "_minDepositAmount",
          "type": "uint256"
        }
      ],
      "name": "setMinDepositAmount",
      "outputs": [],
      "stateMutability": "nonpayable",
      "type": "function"
    },
    {
      "inputs": [
        {
          "internalType": "uint256",
          "name": "_poolLimitPerUser",
          "type": "uint256"
        }
      ],
      "name": "setPoolLimitPerUser",
      "outputs": [],
      "stateMutability": "nonpayable",
      "type": "function"
    },
    {
      "inputs": [
        {
          "internalType": "uint256",
          "name": "_rewardPerSecond",
          "type": "uint256"
        }
      ],
      "name": "setRewardPerSecond",
      "outputs": [],
      "stateMutability": "nonpayable",
      "type": "function"
    },
    {
      "inputs": [
        {
          "internalType": "uint256",
          "name": "_startTime",
          "type": "uint256"
        },
        {
          "internalType": "uint256",
          "name": "_endTime",
          "type": "uint256"
        }
      ],
      "name": "setStartAndEndTimes",
      "outputs": [],
      "stateMutability": "nonpayable",
      "type": "function"
    },
    {
      "inputs": [],
      "name": "stakedToken",
      "outputs": [
        {
          "internalType": "contract IERC20",
          "name": "",
          "type": "address"
        }
      ],
      "stateMutability": "view",
      "type": "function"
    },
    {
      "inputs": [],
      "name": "startTime",
      "outputs": [
        {
          "internalType": "uint256",
          "name": "",
          "type": "uint256"
        }
      ],
      "stateMutability": "view",
      "type": "function"
    },
    {
      "inputs": [],
      "name": "stopFreeze",
      "outputs": [],
      "stateMutability": "nonpayable",
      "type": "function"
    },
    {
      "inputs": [],
      "name": "stopReward",
      "outputs": [],
      "stateMutability": "nonpayable",
      "type": "function"
    },
    {
      "inputs": [],
      "name": "totalRewardTokens",
      "outputs": [
        {
          "internalType": "uint256",
          "name": "",
          "type": "uint256"
        }
      ],
      "stateMutability": "view",
      "type": "function"
    },
    {
      "inputs": [],
      "name": "totalStakingTokens",
      "outputs": [
        {
          "internalType": "uint256",
          "name": "",
          "type": "uint256"
        }
      ],
      "stateMutability": "view",
      "type": "function"
    },
    {
      "inputs": [
        {
          "internalType": "address",
          "name": "newOwner",
          "type": "address"
        }
      ],
      "name": "transferOwnership",
      "outputs": [],
      "stateMutability": "nonpayable",
      "type": "function"
    },
    {
      "inputs": [
        {
          "internalType": "address",
          "name": "",
          "type": "address"
        }
      ],
      "name": "userInfos",
      "outputs": [
        {
          "internalType": "bool",
          "name": "isAdded",
          "type": "bool"
        },
        {
          "internalType": "address",
          "name": "addr",
          "type": "address"
        },
        {
          "internalType": "uint256",
          "name": "totalAmount",
          "type": "uint256"
        },
        {
          "internalType": "uint256",
          "name": "nextDepositId",
          "type": "uint256"
        }
      ],
      "stateMutability": "view",
      "type": "function"
    },
    {
      "inputs": [
        {
          "internalType": "uint256",
          "name": "",
          "type": "uint256"
        }
      ],
      "name": "userList",
      "outputs": [
        {
          "internalType": "address",
          "name": "",
          "type": "address"
        }
      ],
      "stateMutability": "view",
      "type": "function"
    },
    {
      "inputs": [
        {
          "internalType": "address",
          "name": "_staker",
          "type": "address"
        },
        {
          "internalType": "uint256",
          "name": "_amount",
          "type": "uint256"
        },
        {
          "internalType": "uint256",
          "name": "_depositId",
          "type": "uint256"
        }
      ],
      "name": "withdrawTokens",
      "outputs": [],
      "stateMutability": "nonpayable",
      "type": "function"
    }
  ],
  "bytecode": "0x608060405234801561001057600080fd5b50604051613642380380613642833981810160405281019061003291906102dd565b33600073ffffffffffffffffffffffffffffffffffffffff168173ffffffffffffffffffffffffffffffffffffffff16036100a55760006040517f1e4fbdf700000000000000000000000000000000000000000000000000000000815260040161009c9190610379565b60405180910390fd5b6100b48161016e60201b60201c565b506001808190555085600360006101000a81548173ffffffffffffffffffffffffffffffffffffffff021916908373ffffffffffffffffffffffffffffffffffffffff16021790555084600260006101000a81548173ffffffffffffffffffffffffffffffffffffffff021916908373ffffffffffffffffffffffffffffffffffffffff16021790555083600781905550826008819055508160098190555080601281905550600854600a81905550505050505050610394565b60008060009054906101000a900473ffffffffffffffffffffffffffffffffffffffff169050816000806101000a81548173ffffffffffffffffffffffffffffffffffffffff021916908373ffffffffffffffffffffffffffffffffffffffff1602179055508173ffffffffffffffffffffffffffffffffffffffff168173ffffffffffffffffffffffffffffffffffffffff167f8be0079c531659141344cd1fd0a4f28419497f9722a3daafe3b4186f6b6457e060405160405180910390a35050565b600080fd5b600073ffffffffffffffffffffffffffffffffffffffff82169050919050565b600061026282610237565b9050919050565b600061027482610257565b9050919050565b61028481610269565b811461028f57600080fd5b50565b6000815190506102a18161027b565b92915050565b6000819050919050565b6102ba816102a7565b81146102c557600080fd5b50565b6000815190506102d7816102b1565b92915050565b60008060008060008060c087890312156102fa576102f9610232565b5b600061030889828a01610292565b965050602061031989828a01610292565b955050604061032a89828a016102c8565b945050606061033b89828a016102c8565b935050608061034c89828a016102c8565b92505060a061035d89828a016102c8565b9150509295509295509295565b61037381610257565b82525050565b600060208201905061038e600083018461036a565b92915050565b61329f806103a36000396000f3fe608060405234801561001057600080fd5b50600436106102535760003560e01c8063715018a6116101465780639f34a156116100c3578063cc7a262e11610087578063cc7a262e14610681578063dd49756e1461069f578063f2fde38b146106bb578063f430cf0d146106d7578063f7c618c114610707578063fd6eafc61461072557610253565b80639f34a156146105c95780639f4216e8146105e7578063a2526bd314610617578063ae2754c914610647578063becfed341461066357610253565b80638da5cb5b1161010a5780638da5cb5b1461051f5780638f10369a1461053d5780638f6629151461055b5780639231cf74146105795780639a6b97ca1461059757610253565b8063715018a6146104c7578063752d4b52146104d157806378e97925146104ed57806380dc06721461050b5780638820690b1461051557610253565b80633f138d4b116101d457806358eb97001161019857806358eb970014610437578063645006ca1461045357806366da58151461047157806366fe9f8a1461048d57806368242c54146104ab57610253565b80633f138d4b1461037c57806343b0215f146103985780634c1d1fde146103cb5780634eb665af146103e7578063566a07a01461040357610253565b8063225b01641161021b578063225b0164146102ec578063296b5fb2146103085780632a80cda3146103245780633197cbb61461034057806333eeb1471461035e57610253565b8063045544431461025857806305fe2fc1146102765780630e80f0b3146102945780631b0875a6146102b05780631cfd0afc146102ce575b600080fd5b610260610741565b60405161026d91906123a3565b60405180910390f35b61027e610747565b60405161028b91906123a3565b60405180910390f35b6102ae60048036038101906102a9919061244d565b610754565b005b6102b861078c565b6040516102c591906123a3565b60405180910390f35b6102d6610792565b6040516102e391906123a3565b60405180910390f35b610306600480360381019061030191906124d8565b610798565b005b610322600480360381019061031d9190612518565b610847565b005b61033e60048036038101906103399190612518565b610859565b005b61034861086b565b60405161035591906123a3565b60405180910390f35b610366610871565b6040516103739190612554565b60405180910390f35b6103966004803603810190610391919061256f565b61088c565b005b6103b260048036038101906103ad91906125af565b6109e3565b6040516103c294939291906125eb565b60405180910390f35b6103e560048036038101906103e09190612630565b610a40565b005b61040160048036038101906103fc9190612518565b610ea2565b005b61041d6004803603810190610418919061256f565b610eb4565b60405161042e959493929190612683565b60405180910390f35b610451600480360381019061044c9190612518565b610ef7565b005b61045b61110b565b60405161046891906123a3565b60405180910390f35b61048b60048036038101906104869190612518565b611111565b005b61049561112b565b6040516104a291906123a3565b60405180910390f35b6104c560048036038101906104c09190612518565b611131565b005b6104cf611143565b005b6104eb60048036038101906104e69190612518565b611157565b005b6104f56111c8565b60405161050291906123a3565b60405180910390f35b6105136111ce565b005b61051d6111df565b005b6105276111f9565b60405161053491906126d6565b60405180910390f35b610545611222565b60405161055291906123a3565b60405180910390f35b610563611228565b60405161057091906123a3565b60405180910390f35b61058161122e565b60405161058e91906123a3565b60405180910390f35b6105b160048036038101906105ac91906126f1565b611234565b6040516105c093929190612862565b60405180910390f35b6105d1611436565b6040516105de91906123a3565b60405180910390f35b61060160048036038101906105fc9190612518565b61143c565b60405161060e91906126d6565b60405180910390f35b610631600480360381019061062c91906128a0565b61147b565b60405161063e9190612554565b60405180910390f35b610661600480360381019061065c91906126f1565b6114aa565b005b61066b61155c565b60405161067891906123a3565b60405180910390f35b610689611562565b604051610696919061293f565b60405180910390f35b6106b960048036038101906106b49190612518565b611588565b005b6106d560048036038101906106d091906125af565b611bc0565b005b6106f160048036038101906106ec919061256f565b611c46565b6040516106fe91906123a3565b60405180910390f35b61070f611d90565b60405161071c919061293f565b60405180910390f35b61073f600480360381019061073a91906126f1565b611db6565b005b60125481565b6000600580549050905090565b61075c611e54565b61078782828573ffffffffffffffffffffffffffffffffffffffff16611edb9092919063ffffffff16565b505050565b600d5481565b600c5481565b6107a0611f5a565b80601360006107ad611fa0565b73ffffffffffffffffffffffffffffffffffffffff1673ffffffffffffffffffffffffffffffffffffffff16815260200190815260200160002060008473ffffffffffffffffffffffffffffffffffffffff1673ffffffffffffffffffffffffffffffffffffffff16815260200190815260200160002060006101000a81548160ff021916908315150217905550610843611fa8565b5050565b61084f611e54565b8060108190555050565b610861611e54565b8060118190555050565b60095481565b6000600e5442101580156108875750600f544211155b905090565b610894611e54565b600360009054906101000a900473ffffffffffffffffffffffffffffffffffffffff1673ffffffffffffffffffffffffffffffffffffffff168273ffffffffffffffffffffffffffffffffffffffff1603610924576040517f08c379a000000000000000000000000000000000000000000000000000000000815260040161091b906129b7565b60405180910390fd5b600260009054906101000a900473ffffffffffffffffffffffffffffffffffffffff1673ffffffffffffffffffffffffffffffffffffffff168273ffffffffffffffffffffffffffffffffffffffff16036109b4576040517f08c379a00000000000000000000000000000000000000000000000000000000081526004016109ab90612a23565b60405180910390fd5b6109df33828473ffffffffffffffffffffffffffffffffffffffff16611edb9092919063ffffffff16565b5050565b60046020528060005260406000206000915090508060000160009054906101000a900460ff16908060000160019054906101000a900473ffffffffffffffffffffffffffffffffffffffff16908060010154908060020154905084565b610a48611f5a565b610a50610871565b15610a90576040517f08c379a0000000000000000000000000000000000000000000000000000000008152600401610a8790612a8f565b60405180910390fd5b60008211610ad3576040517f08c379a0000000000000000000000000000000000000000000000000000000008152600401610aca90612afb565b60405180910390fd5b6000610add611fa0565b90508373ffffffffffffffffffffffffffffffffffffffff168173ffffffffffffffffffffffffffffffffffffffff1614610bdc57601360008573ffffffffffffffffffffffffffffffffffffffff1673ffffffffffffffffffffffffffffffffffffffff16815260200190815260200160002060008273ffffffffffffffffffffffffffffffffffffffff1673ffffffffffffffffffffffffffffffffffffffff16815260200190815260200160002060009054906101000a900460ff16610bdb576040517f08c379a0000000000000000000000000000000000000000000000000000000008152600401610bd290612b67565b60405180910390fd5b5b6000600660008673ffffffffffffffffffffffffffffffffffffffff1673ffffffffffffffffffffffffffffffffffffffff168152602001908152602001600020600084815260200190815260200160002090508381600001541015610c77576040517f08c379a0000000000000000000000000000000000000000000000000000000008152600401610c6e90612bd3565b60405180910390fd5b8060020154421015610cbe576040517f08c379a0000000000000000000000000000000000000000000000000000000008152600401610cb590612c3f565b60405180910390fd5b610cc6611fb1565b806003015464e8d4a51000600b548360000154610ce39190612c8e565b610ced9190612cff565b610cf79190612d30565b816004016000828254610d0a9190612d64565b925050819055506000816004015490506000811115610d385760008260040181905550610d378382612035565b5b6000600460008873ffffffffffffffffffffffffffffffffffffffff1673ffffffffffffffffffffffffffffffffffffffff168152602001908152602001600020905085816001016000828254610d8f9190612d30565b9250508190555085600c6000828254610da89190612d30565b9250508190555085836000016000828254610dc39190612d30565b92505081905550610e178487600360009054906101000a900473ffffffffffffffffffffffffffffffffffffffff1673ffffffffffffffffffffffffffffffffffffffff16611edb9092919063ffffffff16565b64e8d4a51000600b548460000154610e2f9190612c8e565b610e399190612cff565b83600301819055508673ffffffffffffffffffffffffffffffffffffffff167f1b8561452fa74e924595acdd3ac89d0ff57594a6d1efbd052b58e68dfa9c85d48787604051610e89929190612d98565b60405180910390a250505050610e9d611fa8565b505050565b610eaa611e54565b8060128190555050565b6006602052816000526040600020602052806000526040600020600091509150508060000154908060010154908060020154908060030154908060040154905085565b610eff611e54565b6000600260009054906101000a900473ffffffffffffffffffffffffffffffffffffffff1673ffffffffffffffffffffffffffffffffffffffff166370a08231306040518263ffffffff1660e01b8152600401610f5c91906126d6565b602060405180830381865afa158015610f79573d6000803e3d6000fd5b505050506040513d601f19601f82011682018060405250810190610f9d9190612dd6565b9050610fee333084600260009054906101000a900473ffffffffffffffffffffffffffffffffffffffff1673ffffffffffffffffffffffffffffffffffffffff1661211b909392919063ffffffff16565b6000600260009054906101000a900473ffffffffffffffffffffffffffffffffffffffff1673ffffffffffffffffffffffffffffffffffffffff166370a08231306040518263ffffffff1660e01b815260040161104b91906126d6565b602060405180830381865afa158015611068573d6000803e3d6000fd5b505050506040513d601f19601f8201168201806040525081019061108c9190612dd6565b90506000828261109c9190612d30565b905080600d60008282546110b09190612d64565b925050819055503373ffffffffffffffffffffffffffffffffffffffff167f37414b6644573d66661110cff1d33d8900af93bd5bbcb26a8f96a4f0d145cbea826040516110fd91906123a3565b60405180910390a250505050565b60115481565b611119611e54565b611121611fb1565b8060078190555050565b60105481565b611139611e54565b80600d8190555050565b61114b611e54565b611155600061219d565b565b61115f611e54565b80600d60008282546111719190612d30565b925050819055506111c53382600260009054906101000a900473ffffffffffffffffffffffffffffffffffffffff1673ffffffffffffffffffffffffffffffffffffffff16611edb9092919063ffffffff16565b50565b60085481565b6111d6611e54565b42600981905550565b6111e7611e54565b6000600e819055506000600f81905550565b60008060009054906101000a900473ffffffffffffffffffffffffffffffffffffffff16905090565b60075481565b600b5481565b600a5481565b6060600080600060058054905090506000850361125057600194505b858161125c9190612d30565b85111561127257858161126f9190612d30565b94505b60008567ffffffffffffffff81111561128e5761128d612e03565b5b6040519080825280602002602001820160405280156112c757816020015b6112b461234a565b8152602001906001900390816112ac5790505b50905060005b8681101561141857600460006005838b6112e79190612d64565b815481106112f8576112f7612e32565b5b9060005260206000200160009054906101000a900473ffffffffffffffffffffffffffffffffffffffff1673ffffffffffffffffffffffffffffffffffffffff1673ffffffffffffffffffffffffffffffffffffffff1681526020019081526020016000206040518060800160405290816000820160009054906101000a900460ff161515151581526020016000820160019054906101000a900473ffffffffffffffffffffffffffffffffffffffff1673ffffffffffffffffffffffffffffffffffffffff1673ffffffffffffffffffffffffffffffffffffffff16815260200160018201548152602001600282015481525050828281518110611400576113ff612e32565b5b602002602001018190525080806001019150506112cd565b508086886114269190612d64565b8394509450945050509250925092565b600e5481565b6005818154811061144c57600080fd5b906000526020600020016000915054906101000a900473ffffffffffffffffffffffffffffffffffffffff1681565b60136020528160005260406000206020528060005260406000206000915091509054906101000a900460ff1681565b6114b2611e54565b60095442116114f6576040517f08c379a00000000000000000000000000000000000000000000000000000000081526004016114ed90612ead565b60405180910390fd5b808210611538576040517f08c379a000000000000000000000000000000000000000000000000000000000815260040161152f90612f19565b60405180910390fd5b80600981905550428211156115585781600881905550600854600a819055505b5050565b600f5481565b600360009054906101000a900473ffffffffffffffffffffffffffffffffffffffff1681565b611590611f5a565b60085442101580156115a457506009544211155b6115e3576040517f08c379a00000000000000000000000000000000000000000000000000000000081526004016115da90612f85565b60405180910390fd5b6115eb610871565b1561162b576040517f08c379a000000000000000000000000000000000000000000000000000000000815260040161162290612ff1565b60405180910390fd5b6000811161166e576040517f08c379a000000000000000000000000000000000000000000000000000000000815260040161166590612afb565b60405180910390fd5b6000611678611fa0565b90506000600460008373ffffffffffffffffffffffffffffffffffffffff1673ffffffffffffffffffffffffffffffffffffffff16815260200190815260200160002090506011548160010154846116d09190612d64565b1015611711576040517f08c379a00000000000000000000000000000000000000000000000000000000081526004016117089061305d565b60405180910390fd5b600060105411156117715760105481600101548461172f9190612d64565b1115611770576040517f08c379a0000000000000000000000000000000000000000000000000000000008152600401611767906130c9565b60405180910390fd5b5b611779611fb1565b8060000160009054906101000a900460ff166118535760018160000160006101000a81548160ff021916908315150217905550818160000160016101000a81548173ffffffffffffffffffffffffffffffffffffffff021916908373ffffffffffffffffffffffffffffffffffffffff1602179055506005829080600181540180825580915050600190039060005260206000200160009091909190916101000a81548173ffffffffffffffffffffffffffffffffffffffff021916908373ffffffffffffffffffffffffffffffffffffffff1602179055505b6000600660008473ffffffffffffffffffffffffffffffffffffffff1673ffffffffffffffffffffffffffffffffffffffff16815260200190815260200160002060008360020160008154809291906118ab906130e9565b919050558152602001908152602001600020905060008160000154111561191857806003015464e8d4a51000600b5483600001546118e99190612c8e565b6118f39190612cff565b6118fd9190612d30565b8160040160008282546119109190612d64565b925050819055505b6000600360009054906101000a900473ffffffffffffffffffffffffffffffffffffffff1673ffffffffffffffffffffffffffffffffffffffff166370a08231306040518263ffffffff1660e01b815260040161197591906126d6565b602060405180830381865afa158015611992573d6000803e3d6000fd5b505050506040513d601f19601f820116820180604052508101906119b69190612dd6565b9050611a07843087600360009054906101000a900473ffffffffffffffffffffffffffffffffffffffff1673ffffffffffffffffffffffffffffffffffffffff1661211b909392919063ffffffff16565b6000600360009054906101000a900473ffffffffffffffffffffffffffffffffffffffff1673ffffffffffffffffffffffffffffffffffffffff166370a08231306040518263ffffffff1660e01b8152600401611a6491906126d6565b602060405180830381865afa158015611a81573d6000803e3d6000fd5b505050506040513d601f19601f82011682018060405250810190611aa59190612dd6565b905060008282611ab59190612d30565b905080856001016000828254611acb9190612d64565b9250508190555080600c6000828254611ae49190612d64565b9250508190555080846000016000828254611aff9190612d64565b9250508190555042846001018190555060125442611b1d9190612d64565b846002018190555064e8d4a51000600b548560000154611b3d9190612c8e565b611b479190612cff565b84600301819055508573ffffffffffffffffffffffffffffffffffffffff167fcced3dbb2e04cb879dc590183fec76c1d8dcfb4de954d150b93f6a2036564da78260018860020154611b999190612d30565b604051611ba7929190612d98565b60405180910390a2505050505050611bbd611fa8565b50565b611bc8611e54565b600073ffffffffffffffffffffffffffffffffffffffff168173ffffffffffffffffffffffffffffffffffffffff1603611c3a5760006040517f1e4fbdf7000000000000000000000000000000000000000000000000000000008152600401611c3191906126d6565b60405180910390fd5b611c438161219d565b50565b600080600660008573ffffffffffffffffffffffffffffffffffffffff1673ffffffffffffffffffffffffffffffffffffffff16815260200190815260200160002060008481526020019081526020016000206040518060a00160405290816000820154815260200160018201548152602001600282015481526020016003820154815260200160048201548152505090506000600b549050600a5442118015611cf357506000600c5414155b15611d48576000611d06600a5442612261565b9050600060075482611d189190612c8e565b9050600c5464e8d4a5100082611d2e9190612c8e565b611d389190612cff565b83611d439190612d64565b925050505b816060015164e8d4a51000828460000151611d639190612c8e565b611d6d9190612cff565b611d779190612d30565b8260800151611d869190612d64565b9250505092915050565b600260009054906101000a900473ffffffffffffffffffffffffffffffffffffffff1681565b611dbe611e54565b808210611e00576040517f08c379a0000000000000000000000000000000000000000000000000000000008152600401611df79061317d565b60405180910390fd5b814210611e42576040517f08c379a0000000000000000000000000000000000000000000000000000000008152600401611e39906131e9565b60405180910390fd5b81600e8190555080600f819055505050565b611e5c611fa0565b73ffffffffffffffffffffffffffffffffffffffff16611e7a6111f9565b73ffffffffffffffffffffffffffffffffffffffff1614611ed957611e9d611fa0565b6040517f118cdaa7000000000000000000000000000000000000000000000000000000008152600401611ed091906126d6565b60405180910390fd5b565b611f55838473ffffffffffffffffffffffffffffffffffffffff1663a9059cbb8585604051602401611f0e929190613209565b604051602081830303815290604052915060e01b6020820180517bffffffffffffffffffffffffffffffffffffffffffffffffffffffff83818316178352505050506122a8565b505050565b600260015403611f96576040517f3ee5aeb500000000000000000000000000000000000000000000000000000000815260040160405180910390fd5b6002600181905550565b600033905090565b60018081905550565b600a54421115612033576000600c5403611fd15742600a81905550612033565b6000611fdf600a5442612261565b9050600060075482611ff19190612c8e565b9050600c5464e8d4a51000826120079190612c8e565b6120119190612cff565b600b60008282546120229190612d64565b9250508190555042600a8190555050505b565b6000600d549050808211156120af5780600d60008282546120569190612d30565b925050819055506120aa8382600260009054906101000a900473ffffffffffffffffffffffffffffffffffffffff1673ffffffffffffffffffffffffffffffffffffffff16611edb9092919063ffffffff16565b612116565b81600d60008282546120c19190612d30565b925050819055506121158383600260009054906101000a900473ffffffffffffffffffffffffffffffffffffffff1673ffffffffffffffffffffffffffffffffffffffff16611edb9092919063ffffffff16565b5b505050565b612197848573ffffffffffffffffffffffffffffffffffffffff166323b872dd86868660405160240161215093929190613232565b604051602081830303815290604052915060e01b6020820180517bffffffffffffffffffffffffffffffffffffffffffffffffffffffff83818316178352505050506122a8565b50505050565b60008060009054906101000a900473ffffffffffffffffffffffffffffffffffffffff169050816000806101000a81548173ffffffffffffffffffffffffffffffffffffffff021916908373ffffffffffffffffffffffffffffffffffffffff1602179055508173ffffffffffffffffffffffffffffffffffffffff168173ffffffffffffffffffffffffffffffffffffffff167f8be0079c531659141344cd1fd0a4f28419497f9722a3daafe3b4186f6b6457e060405160405180910390a35050565b6000600954821161227f5782826122789190612d30565b90506122a2565b600954831061229157600090506122a2565b8260095461229f9190612d30565b90505b92915050565b600080602060008451602086016000885af1806122cb576040513d6000823e3d81fd5b3d9250600051915050600082146122e6576001811415612302565b60008473ffffffffffffffffffffffffffffffffffffffff163b145b1561234457836040517f5274afe700000000000000000000000000000000000000000000000000000000815260040161233b91906126d6565b60405180910390fd5b50505050565b6040518060800160405280600015158152602001600073ffffffffffffffffffffffffffffffffffffffff16815260200160008152602001600081525090565b6000819050919050565b61239d8161238a565b82525050565b60006020820190506123b86000830184612394565b92915050565b600080fd5b600073ffffffffffffffffffffffffffffffffffffffff82169050919050565b60006123ee826123c3565b9050919050565b6123fe816123e3565b811461240957600080fd5b50565b60008135905061241b816123f5565b92915050565b61242a8161238a565b811461243557600080fd5b50565b60008135905061244781612421565b92915050565b600080600060608486031215612466576124656123be565b5b60006124748682870161240c565b93505060206124858682870161240c565b925050604061249686828701612438565b9150509250925092565b60008115159050919050565b6124b5816124a0565b81146124c057600080fd5b50565b6000813590506124d2816124ac565b92915050565b600080604083850312156124ef576124ee6123be565b5b60006124fd8582860161240c565b925050602061250e858286016124c3565b9150509250929050565b60006020828403121561252e5761252d6123be565b5b600061253c84828501612438565b91505092915050565b61254e816124a0565b82525050565b60006020820190506125696000830184612545565b92915050565b60008060408385031215612586576125856123be565b5b60006125948582860161240c565b92505060206125a585828601612438565b9150509250929050565b6000602082840312156125c5576125c46123be565b5b60006125d38482850161240c565b91505092915050565b6125e5816123e3565b82525050565b60006080820190506126006000830187612545565b61260d60208301866125dc565b61261a6040830185612394565b6126276060830184612394565b95945050505050565b600080600060608486031215612649576126486123be565b5b60006126578682870161240c565b935050602061266886828701612438565b925050604061267986828701612438565b9150509250925092565b600060a0820190506126986000830188612394565b6126a56020830187612394565b6126b26040830186612394565b6126bf6060830185612394565b6126cc6080830184612394565b9695505050505050565b60006020820190506126eb60008301846125dc565b92915050565b60008060408385031215612708576127076123be565b5b600061271685828601612438565b925050602061272785828601612438565b9150509250929050565b600081519050919050565b600082825260208201905092915050565b6000819050602082019050919050565b612766816124a0565b82525050565b612775816123e3565b82525050565b6127848161238a565b82525050565b6080820160008201516127a0600085018261275d565b5060208201516127b3602085018261276c565b5060408201516127c6604085018261277b565b5060608201516127d9606085018261277b565b50505050565b60006127eb838361278a565b60808301905092915050565b6000602082019050919050565b600061280f82612731565b612819818561273c565b93506128248361274d565b8060005b8381101561285557815161283c88826127df565b9750612847836127f7565b925050600181019050612828565b5085935050505092915050565b6000606082019050818103600083015261287c8186612804565b905061288b6020830185612394565b6128986040830184612394565b949350505050565b600080604083850312156128b7576128b66123be565b5b60006128c58582860161240c565b92505060206128d68582860161240c565b9150509250929050565b6000819050919050565b60006129056129006128fb846123c3565b6128e0565b6123c3565b9050919050565b6000612917826128ea565b9050919050565b60006129298261290c565b9050919050565b6129398161291e565b82525050565b60006020820190506129546000830184612930565b92915050565b600082825260208201905092915050565b7f43616e6e6f74206265207374616b656420746f6b656e00000000000000000000600082015250565b60006129a160168361295a565b91506129ac8261296b565b602082019050919050565b600060208201905081810360008301526129d081612994565b9050919050565b7f43616e6e6f742062652072657761726420746f6b656e00000000000000000000600082015250565b6000612a0d60168361295a565b9150612a18826129d7565b602082019050919050565b60006020820190508181036000830152612a3c81612a00565b9050919050565b7f57697468647261772069732066726f7a656e0000000000000000000000000000600082015250565b6000612a7960128361295a565b9150612a8482612a43565b602082019050919050565b60006020820190508181036000830152612aa881612a6c565b9050919050565b7f496e76616c696420616d6f756e74000000000000000000000000000000000000600082015250565b6000612ae5600e8361295a565b9150612af082612aaf565b602082019050919050565b60006020820190508181036000830152612b1481612ad8565b9050919050565b7f496e76616c696420757365720000000000000000000000000000000000000000600082015250565b6000612b51600c8361295a565b9150612b5c82612b1b565b602082019050919050565b60006020820190508181036000830152612b8081612b44565b9050919050565b7f416d6f756e7420746f20776974686472617720746f6f20686967680000000000600082015250565b6000612bbd601b8361295a565b9150612bc882612b87565b602082019050919050565b60006020820190508181036000830152612bec81612bb0565b9050919050565b7f496e76616c69642074696d6520746f2077697468647261770000000000000000600082015250565b6000612c2960188361295a565b9150612c3482612bf3565b602082019050919050565b60006020820190508181036000830152612c5881612c1c565b9050919050565b7f4e487b7100000000000000000000000000000000000000000000000000000000600052601160045260246000fd5b6000612c998261238a565b9150612ca48361238a565b9250828202612cb28161238a565b91508282048414831517612cc957612cc8612c5f565b5b5092915050565b7f4e487b7100000000000000000000000000000000000000000000000000000000600052601260045260246000fd5b6000612d0a8261238a565b9150612d158361238a565b925082612d2557612d24612cd0565b5b828204905092915050565b6000612d3b8261238a565b9150612d468361238a565b9250828203905081811115612d5e57612d5d612c5f565b5b92915050565b6000612d6f8261238a565b9150612d7a8361238a565b9250828201905080821115612d9257612d91612c5f565b5b92915050565b6000604082019050612dad6000830185612394565b612dba6020830184612394565b9392505050565b600081519050612dd081612421565b92915050565b600060208284031215612dec57612deb6123be565b5b6000612dfa84828501612dc1565b91505092915050565b7f4e487b7100000000000000000000000000000000000000000000000000000000600052604160045260246000fd5b7f4e487b7100000000000000000000000000000000000000000000000000000000600052603260045260246000fd5b7f506f6f6c20686173207374617274656400000000000000000000000000000000600082015250565b6000612e9760108361295a565b9150612ea282612e61565b602082019050919050565b60006020820190508181036000830152612ec681612e8a565b9050919050565b7f496e76616c696420737461727420616e6420656e6420626c6f636b0000000000600082015250565b6000612f03601b8361295a565b9150612f0e82612ecd565b602082019050919050565b60006020820190508181036000830152612f3281612ef6565b9050919050565b7f496e76616c69642074696d650000000000000000000000000000000000000000600082015250565b6000612f6f600c8361295a565b9150612f7a82612f39565b602082019050919050565b60006020820190508181036000830152612f9e81612f62565b9050919050565b7f4465706f7369742069732066726f7a656e000000000000000000000000000000600082015250565b6000612fdb60118361295a565b9150612fe682612fa5565b602082019050919050565b6000602082019050818103600083015261300a81612fce565b9050919050565b7f5573657220616d6f756e742062656c6f77206d696e696d756d00000000000000600082015250565b600061304760198361295a565b915061305282613011565b602082019050919050565b600060208201905081810360008301526130768161303a565b9050919050565b7f5573657220616d6f756e742061626f7665206c696d6974000000000000000000600082015250565b60006130b360178361295a565b91506130be8261307d565b602082019050919050565b600060208201905081810360008301526130e2816130a6565b9050919050565b60006130f48261238a565b91507fffffffffffffffffffffffffffffffffffffffffffffffffffffffffffffffff820361312657613125612c5f565b5b600182019050919050565b7f496e76616c696420737461727420616e6420656e642074696d65000000000000600082015250565b6000613167601a8361295a565b915061317282613131565b602082019050919050565b600060208201905081810360008301526131968161315a565b9050919050565b7f496e76616c696420737461727420616e642063757272656e7400000000000000600082015250565b60006131d360198361295a565b91506131de8261319d565b602082019050919050565b60006020820190508181036000830152613202816131c6565b9050919050565b600060408201905061321e60008301856125dc565b61322b6020830184612394565b9392505050565b600060608201905061324760008301866125dc565b61325460208301856125dc565b6132616040830184612394565b94935050505056fea2646970667358221220a642acd50cc821c0be79b2fae89fe516ef205844b5007cfac99f8c49e0f2b88c64736f6c634300081c0033",
  "linkReferences": {},
  "deployedLinkReferences": {}
}